:020000040000FA
:10000000B0330020A9020000D10200008D020000E0
:10001000D5020000D7020000D90200000000000055
:10002000000000000000000000000000DB020000F3
:10003000DD02000000000000DF0200008926000051
:10004000E3020000E3020000E3020000E30200001C
:10005000E3020000E3020000E3020000E30200000C
:10006000E3020000E3020000E3020000E3020000FC
:10007000E3020000E3020000E3020000E3020000EC
:10008000E3020000D51D0000E3020000E3020000CF
:10009000E3020000E3020000E3020000E3020000CC
:1000A000E3020000E3020000E3020000E3020000BC
:1000B000E3020000E3020000E3020000E3020000AC
:1000C00019280000E3020000E3020000E302000040
:1000D000E3020000E3020000E3020000E30200008C
:1000E000E3020000E3020000E3020000E30200007C
:1000F000E3020000E3020000E3020000E30200006C
:10010000E3020000E3020000E3020000E30200005B
:10011000E3020000E3020000E3020000E30200004B
:10012000E3020000E3020000E3020000E30200003B
:10013000E3020000E3020000E3020000E30200002B
:10014000E3020000E3020000E3020000E30200001B
:10015000E3020000E3020000E3020000E30200000B
:10016000E3020000E3020000E3020000E3020000FB
:10017000E3020000E3020000E3020000E3020000EB
:10018000E3020000E3020000E3020000E3020000DB
:10019000E3020000E3020000E3020000E3020000CB
:1001A000E3020000E3020000E3020000E3020000BB
:1001B000E3020000E3020000E3020000E3020000AB
:1001C000E3020000E3020000E3020000E30200009B
:1001D000E3020000E3020000E3020000E30200008B
:1001E000E3020000E3020000E3020000112A000025
:1001F000E3020000E3020000E3020000E30200006B
:10020000E3020000E3020000E3020000E30200005A
:10021000E3020000E3020000E3020000E30200004A
:10022000E3020000E3020000E3020000E30200003A
:10023000E3020000E3020000E3020000E30200002A
:10024000E3020000E3020000E3020000E30200001A
:10025000E3020000E3020000E3020000E30200000A
:10026000E3020000E3020000E3020000E3020000FA
:10027000E3020000E3020000DFF80CD000F03CFBDA
:100280000048004711410000B033002004207146AF
:10029000084202D0EFF3098001E0EFF308807146D5
:1002A000004A1047691E00000E484FF059010160D6
:1002B0004FF0160101604FF0880101600A4A45F6CF
:1002C000A5211160002101600848804708480047C7
:1002D000FEE7FEE7FEE7FEE7FEE7FEE7FEE7FEE7F6
:1002E000FEE7FEE700010040240000400D2700006B
:1002F000790200002DE9F05F0546002092469B46FA
:1003000088460646814640241DE028464146474629
:10031000224600F022F8B0EB0A0052465B4671EB31
:100320000B0110D310461946224600F036FA2D1A5A
:1003300067EB01084F4622460120002100F02DFA0C
:1003400017EB00094E41201EA4F10104DDDC4846F4
:1003500031462A464346BDE8F09F202A04DB203A76
:1003600021FA02F00021704721FA02F3D040C2F1D5
:100370002002914008431946704740EA01039B0759
:1003800003D009E008C9121F08C0042AFAD203E00A
:1003900011F8013B00F8013B521EF9D27047D2B26E
:1003A00001E000F8012B491EFBD270470022F6E75E
:1003B00010B504460846114602462046FFF7EFFFF7
:1003C000204610BD034600E0401C0278002AFBD105
:1003D00011F8012B00F8012B002AF9D118467047BB
:1003E00010B5044604E00B7800F8013B03B1491C4A
:1003F000521EF8D2204610BD0146002000E0401CED
:100400000A5C002AFBD17047034611F8012B00F863
:10041000012B002AF9D11846704730B50546002057
:10042000034600E05B1C934205D2EC5CC85C201ADA
:1004300001D1002CF6D130BD2DE9FE4F074681EAEF
:100440000300C00F0E46019021F0004123F000444C
:10045000B81AA14105D23846314617461E460B460A
:10046000024623F00040104304D13846314603B021
:10047000BDE8F08F350DC5F30A00C3F30A510290B1
:10048000401A0090402867DAC3F3130040F4801B41
:100490000198924620B10023D2EB030A63EB0B0BC9
:1004A00000985946C0F14002504600F076F9804667
:1004B0000C4650465946009A00F07EF9C019714129
:1004C000EF1785EA11533B433FD0019A4AB3009A94
:1004D000012A11DC0022801A61EB05514FF0004324
:1004E00003EA0555CDE90025801841F58011424603
:1004F000234600F080F9BAE72E050025401B61EB8A
:100500000601401941F58012001852412818A6F53D
:10051000001343EB020140EAD47018EB0808644171
:1005200013E064084FEA38084FF0000244EAC07450
:100530004FEA0553801A61EB0301801841F58011E1
:1005400049084FEA3000801859414246234603B01B
:10055000BDE8F04F00F042B90198012240000023AD
:10056000D0EB020263EBE07301984FEAE074381AB3
:1005700066EB0401EBE783F000435DE781F00041A7
:100580005AE72DE9FE4F81EA030421F0004504F00B
:10059000004423F000414FF0000A009450EA0503A4
:1005A00002D052EA010304D10020014603B0BDE8A5
:1005B000F08FC1F30A53C5F30A542344A3F2F33373
:1005C0000193A0FB02B3C5F3130545F4801CC1F3EE
:1005D000130141F480180CFB023300FB083E810A32
:1005E000930A41EA8C5143EA8853A1FB03474FEA3F
:1005F0009C2505FB03734FEA982601FB06373D0552
:10060000260545EA1435BBEB06016EEB0503850EA6
:10061000920E45EA8C1542EA8812A5FB0206261EB8
:1006200067EB00070C0D44EA0334A61947EB13509F
:10063000C1F313044FF000031946E5FB02014FEA32
:10064000033545EA1455019B4FEA0432009CA3F19F
:100650000C03CDE900A445EA060502932B4600F001
:10066000CAF8A3E72DE9F04D81EA030404F0004B3A
:1006700021F0004714464FF0000A23F0004150EAF1
:10068000070220D054EA01021DD0C1F30A550246E8
:10069000C1F31300C7F30A56C7F3130340F48011E4
:1006A00043F48013A6EB0508101BD64608F2FD386C
:1006B00073EB010002D308F1010801E092185B41DD
:1006C000B8F1000F03DA00200146BDE8F08D0020EC
:1006D0004FF48015064607460EE0B2EB040C73EBB0
:1006E000010C04D3121B064363EB01032F436D0877
:1006F0004FEA300092185B4150EA050CEDD152EA06
:10070000030012D082EA040083EA0105284303D1E2
:1007100000224FF0004308E0101B8B4102D201225F
:10072000002302E06FF0010253101AEB060047EBC2
:10073000085110EB0A0041EB0B01BDE8F04D00F051
:100740004DB800F0004230F000400DD0C10D01F571
:10075000607142EA01510022C0F31600520742EADA
:10076000D00240071143704700200146704730B562
:100770000B46014600202022012409E021FA02F55F
:100780009D4205D303FA02F5491B04FA02F52844F9
:10079000151EA2F10102F1DC30BD202A04DB203A53
:1007A00000FA02F1002070479140C2F1200320FAC4
:1007B00003F3194390407047202A06DBCB17203AF9
:1007C00041FA02F043EAE07306E041FA02F3D04056
:1007D000C2F12002914008431946704710B5002B22
:1007E00008DA401C41F1000192185B411A4301D123
:1007F00020F0010010BD2DE9FF4D934611B1B1FA73
:1008000081F202E0B0FA80F220329246FFF7C5FF93
:10081000039A0746884640EA0B0011435B460843AB
:1008200004D13846414604B0BDE8F08D114653EA84
:10083000020016D0CAF140025846FFF78EFD04466A
:100840000D464FF00106584652460399FFF7A5FFA3
:10085000084300D10026344345EAE675274345EABC
:1008600008080E984FF00005A0EB0A014FEAD720C8
:100870000A314FEA47532A4640EA48504FEAD82403
:1008800002D500200146CEE7281844EB0151DDE9EE
:100890000C45001904B06941BDE8F04D9EE7C1F375
:1008A0000A52C1F3130140F2FF3341F480119A421E
:1008B00002DA00200146704740F233439A42A2F226
:1008C000334202DC5242FFF748BDFFF766BF00002B
:1008D00030B5002904DB4FF00044404264EB0101D5
:1008E000002B04DB4FF00044524264EB03039942B7
:1008F00008BF904230BD0000064C074D06E0E0689E
:1009000040F0010394E8070098471034AC42F6D356
:10091000FFF7B6FC084900002849000070B501EB5C
:10092000020410F8015B15F0070301D110F8013B38
:100930002A1106D110F8012B03E010F8016B01F821
:10094000016B5B1EF9D12B0705D40023521E0FD477
:1009500001F8013BFAE710F8013B02F10202A1EBBA
:10096000030303E013F8015B01F8015B521EF9D5A4
:10097000A142D6D3002070BD10B504214EF20F6005
:1009800001F0E4FC00214EF2186001F0DFFC0021D0
:1009900044F2B63001F0DAFC00214FF4874001F058
:1009A00001FD002144F2813001F0FCFC002144F201
:1009B000823001F0F7FC002144F2833001F0F2FCB8
:1009C000002144F2843001F0EDFC002144F2853036
:1009D00001F0E8FC002144F2863001F0E3FC002144
:1009E00044F2873001F0DEFC002144F2883001F04F
:1009F000D9FC002144F2893001F0D4FC002144F2FA
:100A00008A3001F0CFFC002144F28B3001F0CAFCA7
:100A1000002144F28C3001F0C5FC002144F28D30FD
:100A200001F0C0FC002144F2913001F0BBFC002138
:100A300044F2923001F0B6FC002144F2933001F010
:100A4000B1FC002144F2943001F0ACFC002144F2EE
:100A5000953001F0A7FC002144F2963001F0A2FC91
:100A600000214EF2146001F071FC00214EF215607D
:100A700001F06CFC00214EF2166001F067FCA7212A
:100A80004EF2116001F062FCA7214EF2126001F0FB
:100A90005DFCA7214EF2136001F058FC40F688611E
:100AA0004EF2106001F052FC00214EF2017001F094
:100AB0004DFC40F2FF114EF20E6001F047FC0021A8
:100AC0004FF4674001F01CFC714944F2AC3001F076
:100AD00069FC172144F2AB3001F064FC6C4944F22C
:100AE000AA3001F05FFC172144F2A93001F05AFC52
:100AF000674944F2AE3001F055FC172144F2AD30A5
:100B000001F050FC08214EF2027001F0F9FB40F2B6
:100B10005B114EF20C6001F019FC20214EF20A50DC
:100B200001F040FC00214EF20B5001F03BFC594912
:100B300044F2AC3001F036FC022144F2AB3001F05B
:100B400031FC534944F2AA3001F02CFC172144F245
:100B5000A93001F027FC4E4944F2AE3001F022FCEE
:100B6000172144F2AD3001F01DFC08214EF2027055
:100B700001F0C6FB40F25B114EF20C6001F0E6FBA7
:100B800020214EF20A5001F00DFC00214EF20B50D4
:100B900001F008FC10214EF2037001F003FC042167
:100BA0004FF4674001F0ACFB3B4944F2B33001F035
:100BB000F9FB3A4944F2813001F0F4FB374944F241
:100BC000833001F0EFFB354944F2853001F0EAFB58
:100BD000334944F2883001F0E5FB314944F28A3070
:100BE00001F0E0FB2E4944F28C3001F0DBFB0421E4
:100BF0004EF20F6001F0AAFB2A494FF4874001F042
:100C0000D1FB284944F2823001F0CCFB254944F263
:100C1000843001F0C7FB6FF07F0144F2873001F0B0
:100C2000C1FB6FF07F0144F2893001F0BBFB6FF034
:100C30007F0144F28B3001F0B5FB1B4944F2913047
:100C400001F0B0FB184944F2933001F0ABFB1649B8
:100C500044F2953001F0A6FB1C214EF2146001F025
:100C600075FB1C214EF2156001F070FB1C214EF249
:100C7000166001F06BFB40F6C8014EF2106001F007
:100C800065FB0A214EF2116001F060FB10BD00000F
:100C900061BE7B00D6B9C00074310D00A3B0F8FF6F
:100CA00060EEFFFF1FD789FF4C49EBFF10B5012213
:100CB00008210B4801F0C1F801220421084801F085
:100CC000BCF80120074908604FF000004FF04021B8
:100CD000C1F848084FF47A7000F0D2F910BD000056
:100CE000404000404C48004010B50122D102154858
:100CF00001F0A3F80120144908604FF04021C1F829
:100D00007008124908604FF0C80000F0B9F90020DF
:100D10000D4908600E4908604FF0C80000F0B0F9B6
:100D20000120094908604FF04021C1F870084FF0D8
:100D3000640000F0A5F900204FF04021C1F87408CC
:100D400010BD0000404100406C4900407448004024
:100D50007048004010B501201549086001F032FAD2
:100D600000204FF04021C1F8B00801F02BFA01201B
:100D70000F49086001F026FA00204FF04021C1F829
:100D8000B00801F01FFA01200949086001F01AFAC1
:100D900000200749086001F015FA012004490860A5
:100DA00001F010FA00214EF6014001F0A9FA10BD41
:100DB000B048004010B5FFF797FFFFF777FFFFF748
:100DC000C9FF4EF2035001F04DFA0F490860084682
:100DD00001684EF2035001F0E5FA0B48006800F498
:100DE0000040B0F5004F02D16B2007490860FFF7C3
:100DF000C3FD01214EF2282001F0A8FA4FF47A70C9
:100E000000F03EF910BD0000BC000020084903229C
:100E100002EA907251F8221000F01F0301229A405A
:100E20001143034A032303EA907342F823107047E7
:100E3000040200400449096841EA00014FF0804281
:100E4000C2F80012704700000002004010B501F027
:100E50002FFC0148006810BD8800002030B5002537
:100E60001648016811F4801F01D0002030BD11F434
:100E7000002F01D0124A00E0124AC1F3813333B18E
:100E8000012B06D0022B05D0032B07D104E0012350
:100E900004E000BF022301E0042300BF00BFC1F350
:100EA0000800841CC1F3442000F1020C02FB04F092
:100EB000B0FBFCF0B0FBF3F52846D7E7400200405A
:100EC00000805101001BB70070B504460D460A486A
:100ED000006820F00F0040EA05004FF08041C1F8A3
:100EE00020020648006820F0070040EA0400C1F82C
:100EF000100201F0DDFB70BD200200401002004036
:100F000070B50B46002100248C46C0F387258DB1B7
:100F1000134DC0F3814605EB860CDCF80010C0F3DE
:100F20008725C0F34416B54021EA050545EA0201CC
:100F3000CCF80010C0F3426585B1094D103DC0F3F7
:100F4000017605EB86042168C0F34265C0F30456C0
:100F5000B54021EA050545EA0301216070BD0000A6
:100F60002002004001464FF4D83205E0101EA2F1E5
:100F7000010201DC002070470348006800EA01001C
:100F80008842F3D10120F6E75002004008B5154829
:100F9000FFF73CFF4FF08040406C40F080504FF036
:100FA000804148640846806C40F0110088640E4B14
:100FB00000930823042200210C4801F031FA0B4869
:100FC00001F029FA0948006840F00100074908606B
:100FD00001221103064800F030FF01200549086096
:100FE00008BD00000D005052801A06000010064097
:100FF00080400040B048004010B501225103044831
:1010000000F01BFF01221103014800F016FF10BD84
:101010004040004010B500222021164800F00DFF8E
:1010200001220421134800F0FBFE01220521114892
:1010300000F0F6FE00BF1120002806DA0A200001A9
:101040000D496FF00202885404E00A2000010B49A8
:101050001122885400BF00BF1120012101FA00F0C5
:10106000112149094FF0E02202EB8101C1F8000192
:1010700000BF10BD4040004018ED00E000E400E07B
:10108000044A116800BF034A1268521A8242FAD316
:101090007047000004000020074A116800BF00BF2D
:1010A000054A1268521A0A2AFAD30200A0F1010373
:1010B000D8B2F4D1704700000400002000B502212E
:1010C000012000F0F5FE0C4803F050F8022108461C
:1010D00000F0EEFE094803F049F80221032000F079
:1010E000E7FE074803F042F80221042000F0E0FE8A
:1010F000044803F03BF800BD180000202E0000203B
:10110000440000205A00002070B50546284600F033
:101110002DF908B9002401E04FF0FF34204670BDDE
:101120002DE9F043A1B08146884601A9484600F068
:10113000FBFDE0B901A800F04BF8050014D0281D14
:1011400000F01CF806000CD0424611A906F1180068
:1011500000F0C8F9071E01DB3C460AE04FF0FF34FF
:1011600007E04FF0FF3404E04FF0FF3401E04FF0B0
:10117000FF34204621B0BDE8F083000070B505467D
:1011800000241FE004EB840000EB84100F4951F8A9
:101190003000012815D104EB840000EB84100A46CE
:1011A00002EBC00000F1080110222846FFF735F9D4
:1011B00038B904EB840000EB8410044901EBC00053
:1011C00070BD641C022CDDD30020F9E77C210020D7
:1011D00070B50546002419E004EBC4000D4951F830
:1011E0002000012811D104EBC4000A4602EB800064
:1011F00000F1140110222846FFF70FF928B904EB7B
:10120000C400044901EB800070BD641C022CE3D3D0
:101210000020F9E7CC25002010B5044634B14FF486
:101220000A712046FFF7C2F8002010BD4FF0FF30D2
:10123000FBE70000002118E001EB810000EB8110CA
:101240000C4A52F8300078B9012001EB810202EB20
:101250008112084B43F8320001EB810000EB811052
:101260001A4602EBC0007047491C0229E4D3002053
:10127000F9E700007C210020002112E001EBC10011
:101280000A4A52F8200058B9012001EBC102074B6D
:1012900043F8220001EBC1001A4602EB80007047C0
:1012A000491C0229EAD30020F9E70000CC250020E0
:1012B0002DE9F04107468846F7B33846FFF79CF81A
:1012C00010284DD238782F2847D1002525E005EB8E
:1012D000850000EB8510244951F8300001281BD10E
:1012E00005EB850101EB85111F4A02EBC10101F1FC
:1012F000080010223946FFF790F848B105EB850049
:1013000000EB8510184901EBC0004068404503D14F
:101310004FF0FF30BDE8F0816D1C022DD7D3FFF7F1
:1013200089FF040016D0C4F804801022394604F165
:101330000800FFF755F800E012E004F118006168BA
:1013400000F04AFA06000DD02046FFF765FF4FF087
:10135000FF3607E04FF0FF3604E04FF0FF3601E0C4
:101360004FF0FF363046D5E77C2100202DE9F043D1
:1013700099B00546284600F079FA01287AD105EBA4
:10138000C500574901EB8000406810F0040F73D08E
:1013900005EBC50001EB8000C46905EBC50001EB5E
:1013A0008000076A05EBC50001EB8000406900F290
:1013B000032020F00306A0684038B04201D930462F
:1013C00001E0A0684038064606F140006168084424
:1013D000606006F14000A168081AA06004F11000E6
:1013E00000EBC700466005EBC5003D4A02EB8000FC
:1013F0004022816801A800F0D7FE05EBC5003849FE
:1014000001EB8000406904900020019005EBC501CC
:10141000334A02EB81014022886801A901F08AFB6E
:10142000D4F8008004F1100050F837002168401A09
:10143000119004F1100000EBC7004068129008F111
:10144000180101EBC700082211A901F073FB182253
:10145000414613A800F0A8FED4E90010401A1690E7
:10146000A0681790E0681890182213A9404601F070
:1014700061FB29E02EE0FFE705EBC500184901EB11
:101480008000406810F0020F1ED005EBC5000A4630
:1014900002EB80004022816801A800F085FE05EB88
:1014A000C5000F4901EB80004069049001200590C0
:1014B0000020019005EBC501094A02EB81014022A1
:1014C000886801A901F036FB284600F019F94FF0B1
:1014D000000901E06FF00109484619B0BDE8F0834A
:1014E000681E00202DE9F04105460E461746EDB175
:1014F000304600F0CDF9B0B13146284600F0B6F8DC
:101500008046401D08D03B4640F2014241462846F5
:1015100000F0FEF904460BE03A463146284600F05A
:101520000BF8044604E06FF0010401E06FF00104E1
:101530002046BDE8F08100002DE9F04391B004465B
:1015400089469046E068402878D2204600F022F98B
:10155000F0BBA06840287BD9B8F1000F02D0B8F1E9
:10156000010F72D100F0EAF80646801D6AD0E768E4
:10157000E068401CE06004F11000616840F837103A
:10158000A068403804F1100101EBC7014860002059
:10159000019001200290CDF80C80002004900120E1
:1015A0000590059806902822494607A8FEF718FFDF
:1015B00004F1100151F83700402201A901F0BAFAF4
:1015C000072006EBC601284A02EB8101486000E0D3
:1015D00041E004F1100050F8370006EBC60102EBC1
:1015E0008101886004F1100050F83700403006EBAC
:1015F000C60102EB8101C860002006EBC60102EBC8
:101600008101086106EBC60102EB8101486104F12A
:10161000100000EBC700406806EBC60102EB810139
:10162000886106EBC600114601EB8000C46106EB41
:10163000C60001EB80000762354611E00EE007E0CE
:1016400003E0FFE76FF005050AE06FF0010507E032
:101650006FF0060504E06FF0030501E06FF006058A
:10166000284611B0BDE8F083681E002070B590B028
:1016700005460E46002414E005F1100050F8341021
:101680004022684600F090FD0198012808D12822E8
:1016900006A93046FEF7C1FE10B9204610B070BD55
:1016A000641CE868A042E7D86FF00400F6E7000089
:1016B00030B502460B46002000211BE001EBC104BF
:1016C0000E4D55F82440012C13D101EBC10405EB5C
:1016D0008404E46994420CD101EBC10405EB840459
:1016E000246A9C4205D101EBC10405EB84046468C3
:1016F0002043491C1429E1D330BD0000681E00209E
:1017000010B50446204600F0B1F801280ED104EBD4
:10171000C401084A02EB81002421FEF747FE064877
:101720000068401E04490860002010BD6FF00100F1
:10173000FBE70000681E0020D001002000211DE012
:1017400001EBC100104A52F82000B0B9012001EBB2
:10175000C1020D4B43F822000C480068401C0B4AA4
:101760001060104600680A4A1268904203D9074880
:101770000068074A106008467047491C1429DFD3E7
:101780006FF00500F8E70000681E0020D00100207F
:10179000D40100200246002118E001EBC1000D4BEE
:1017A00053F82000012810D101EBC10003EB8000A9
:1017B000C069904209D101EBC10003EB8000406891
:1017C00010F0040F01D001207047491C1429E4D304
:1017D0000020F9E7681E00202DE9F04188B004469A
:1017E0000E46BCB3B0461822414602A800F0DCFC0D
:1017F0001D49039888422ED1049801282BD10798BF
:10180000402828D84FF404712046FEF7CFFD26600B
:1018100020680599084460600698A0600798E06019
:10182000002512E008F1180000EBC5010822684607
:1018300000F0BAFC0098811904F1100040F835104E
:1018400000EBC500019941606D1CE068A842E9D831
:10185000002705E002E06FF0070701E06FF00107E5
:10186000384608B0BDE8F0813412F5EE0146002993
:1018700009DB142907DA01EBC100044A52F8200001
:10188000012800D170470020FCE70000681E0020FE
:1018900010B5044654B12046FEF7AEFD282805D207
:1018A0002046FEF7A9FD08B1012010BD0020FCE78D
:1018B0002DE9F04705460E461746984615B33046C3
:1018C000FFF7E6FFD8B131462846FFF7CFFE814645
:1018D000401D07D043463A464946284600F018F8CE
:1018E000044611E017F4007F06D000223146284656
:1018F000FFF722FE044607E06FF0040404E06FF0F7
:10190000010401E06FF001042046BDE8F08700000B
:101910002DE9F04790B006460F4615469A4640F22C
:10192000036035EA00007DD115F0030F00D000BF41
:1019300006F1100050F837104022684600F034FCE1
:1019400015F0030F03D0029810F0010F7AD1394639
:101950003046FFF7ADFE814615F0030F02D019F0B7
:10196000020F6CD1FFF7EAFE0446801D64D005F03B
:101970000300401C04EBC401374A02EB81014860BC
:1019800006F1100050F8370004EBC40102EB8101AE
:10199000886006F1100000EBC700406804EBC4014A
:1019A00002EB8101886104EBC400114601EB800069
:1019B000C66104EBC40001EB8000076205F0030080
:1019C000012803D005F00300022819D115F4806F17
:1019D00016D006F1100050F83700403004EBC40177
:1019E0001D4A02EB8101C860002004EBC40102EB38
:1019F0008101086104EBC40102EB8101486119E037
:101A000006F1100050F83700403004EBC401124AD0
:101A100002EB8101C860002004EBC40102EB8101EC
:101A2000086101E011E00DE004EBC40102EB81016B
:101A300003984861A0460AE06FF0050807E06FF0E0
:101A4000030804E06FF0030801E06FF0010840466E
:101A500010B0BDE8F0870000681E00202DE9F041BD
:101A600004460F4690462046FFF700FF012853D159
:101A7000EFB304EBC4002B4901EB8000406810F089
:101A8000010F43D004EBC40001EB8000406904EB7C
:101A9000C401244A02EB81010969401A40450CD96E
:101AA00004EBC400114601EB8000406904EBC40163
:101AB00002EB81010969401A00E04046064604EB4A
:101AC000C400184A02EB80003246C168384600F074
:101AD0006BFB04EBC400134901EB8000C068304489
:101AE00004EBC4010F4A02EB8101C86000E010E082
:101AF00004EBC400114601EB80000069304404EBA4
:101B0000C40102EB81010861354607E06FF003056F
:101B100004E06FF0010501E06FF001052846BDE823
:101B2000F0810000681E00202DE9F04104460F46B8
:101B300090462046FFF79AFE01286BD1EFB304EBE5
:101B4000C400374901EB8000406810F0020F5BD001
:101B500004EBC40001EB8000806904EBC401304A4F
:101B600002EB81010969401A40450CD204EBC40024
:101B7000114601EB8000806904EBC40102EB810196
:101B80000969401A00E04046064604EBC401244AB5
:101B900002EB81013246C868394600F0CBFF04EB06
:101BA000C4001F4901EB8000C068304404EBC4014D
:101BB0001B4A02EB8101C86000E028E004EBC4008E
:101BC000114601EB80000069304404EBC40102EBD4
:101BD0008101086104EBC400114601EB800000693B
:101BE00004EBC40102EB8101496988420AD904EB84
:101BF000C400114601EB8000006904EBC40102EB54
:101C000081014861354607E06FF0030504E06FF09D
:101C1000010501E06FF001052846BDE8F0810000F4
:101C2000681E00202DE9F04105460F467DB3284689
:101C3000FEF7E2FB102831D24FB33846FEF7DCFB4B
:101C400010282BD228782F2825D138782F2822D178
:101C50002846FFF793FAD8B13846FFF7B9FA98B992
:101C6000FFF70AFB06000CD010222946301DFEF7B4
:101C7000B7FB1022394606F11400FEF7B1FB002431
:101C80000EE04FF0FF340BE04FF0FF3408E005E0CA
:101C90004FF0FF3404E04FF0FF3401E04FF0FF3429
:101CA0002046BDE8F0812DE9F043A1B08146884689
:101CB00001A9484600F038F8E8B901A8FFF788FA0A
:101CC000050015D0281DFFF759FA06000DD0002396
:101CD000424611A906F11800FFF7EAFD071E01DBD5
:101CE0003C460AE04FF0FF3407E04FF0FF3404E0D9
:101CF0004FF0FF3401E04FF0FF34204621B0BDE843
:101D0000F0832DE9F04105460F469046424639469C
:101D10002846FFF7A3FE061E01DB344601E04FF024
:101D2000FF342046BDE8F0812DE9F04105460F461D
:101D30007DB377B32846FEF75FFB40282DD2802184
:101D40003846FEF733FB28782F2823D1012404E0FE
:101D5000285D2F2800D105E0641C2846FEF74CFBC7
:101D6000A042F5D800BF2846FEF746FBA0420DD999
:101D7000224629463846FEF733FB601C29184022CC
:101D800007F14000FEF72CFB00260BE04FF0FF367A
:101D900008E005E04FF0FF3604E04FF0FF3601E0C9
:101DA0004FF0FF363046BDE8F0812DE9F0410546A1
:101DB0000F469046424639462846FFF7B5FE061EB6
:101DC00001DB344601E04FF0FF342046BDE8F081EE
:101DD000704770474FF04020006E10F0100F07D092
:101DE00010204FF04021086601200C49087013E0D4
:101DF0004FF04020006E10F0200F07D020204FF051
:101E00004021086601200549087005E04FF0402098
:101E1000006E4FF04021086670470000C4000020AB
:101E200010B58469130E8B401C438461C46922F091
:101E30007F438B401C43C46110BD70B50346002036
:101E40000EE0012484400C4209D01C6846000325A2
:101E5000B540AC43450002FA05F52C431C60401C1C
:101E60001028EED370BD0000044604A000F070FE00
:101E7000204602F0AFF900BFFEE70000496E20489F
:101E8000617264204661756C742048616E646C6593
:101E9000720A000010B5012211020448FFF7CDFFBD
:101EA000012280210148FFF7C8FF10BD804000409B
:101EB00070B506460C46012E06D0022E08D0032E21
:101EC0000AD0042E10D10BE004F17F00C5B20CE063
:101ED00004F18F00C5B208E004F18700C5B204E048
:101EE00004F19700C5B200E000BF00BF284600F033
:101EF00039F870BD10B5FFF7CDFF302000F032F893
:101F00000C2000F02FF8012000F02CF80520FFF73E
:101F1000C3F8022000F026F8062000F023F810BDD8
:101F2000002117E000220D4B1A6010F0800F04D042
:101F3000012203F104031A6002E00022084B1A6038
:101F40000122064B1A604FEA40624FEA126001F12B
:101F50000102D1B20829E5DB704700009C4800402F
:101F6000A048004010B50446F820FFF7D9FF04F060
:101F7000F000FFF7D5FFF02101EA0410FFF7D0FFD2
:101F80000120FFF789F810BD10B50446FA20FFF7CD
:101F9000C7FF04F0F000FFF7C3FFF02101EA0410CF
:101FA000FFF7BEFF0A20FFF777F810BD10B52DED43
:101FB000048B94B07448007801287ED1734800786F
:101FC000C0437249087008460078714908604FF0B4
:101FD00000006D4908704EF2025000F043F96D495F
:101FE000086000F0EFF86B4801684EF2025000F014
:101FF000D9F900F0E7F844F2C13000F033F901906C
:1020000044F2C03000F02EF902904EF2135000F06E
:1020100029F903904FF4644000F024F9049044F24D
:10202000C33000F01FF9059044F2C23000F01AF9F5
:1020300006904EF2145000F015F907904EF2014050
:1020400000F010F9089044F2C53000F00BF9099047
:1020500044F2C43000F006F90A904EF2155000F038
:1020600001F90B904EF2024000F0FCF80C904EF299
:10207000076000F0B1F80D900D98401C4FF47A31D4
:10208000B1FBF0F00D904EF2015000F0EBF80E9025
:102090009DED020AB8EE400A10EE104A9DED010ACD
:1020A00010EE100A00F090FA9DED020A10EE100AF0
:1020B00000F06AFA9DED030A00E053E010EE100A0A
:1020C00000F0A2FA9DED040A10EE100A00F0BCFA2E
:1020D0002046FEF736FB41EC100BB0EE408AF0EEE6
:1020E000608A53EC182B2CA10FA800F041FD80B2A0
:1020F00009EE100A4FF47A710198B0FBF1F027490C
:102100000880029848800398888064210498B0FB76
:10211000F1F02249C8804FF47A710598B0FBF1F0D4
:102120001E4908810698488107988881642108988B
:10213000B0FBF1F01949C8814FF47A710998B0FBEE
:10214000F1F0164908820A9848820B988882642127
:102150000C98B0FBF1F01149C8820D9808830E98D5
:10216000488300BF0E4800680E490968401AB0F560
:102170007A7F05D90A4800680A490860FEF79EFF81
:1021800014B0BDEC048B10BDC4000020DC000020A6
:1021900074480040BC00002025660000E0020020DA
:1021A00004000020E000002070B505460C461646ED
:1021B0000348011932462846FEF7DFF870BD0000DB
:1021C000AC2700200349086800BF02490968091AC2
:1021D000FBD0704704000020FEB5054600201E49D4
:1021E00008604FF001008DF804004FEA15208DF8CB
:1021F0000500E8B28DF806004FF0000407E001A8E2
:10220000005D16490862FFF7DDFF601CC4B2032CB5
:10221000F5DB124800F0FAF81048006B104908701E
:1022200000240BE000200D490862FFF7CBFF0B48AC
:10223000006BC0B20DF80400601CC4B2022CF1DBCC
:102240009DF801009DF8001000EB012601200249D5
:1022500008603046FEBD0000B04800400010064057
:10226000B4000020FEB505460020224908604FF06A
:1022700001008DF804004FEA15208DF80500E8B242
:102280008DF806004FF0000407E001A8005D1A4930
:102290000862FFF797FF601CC4B2032CF5DB1648F9
:1022A00000F0B4F81448006B1449087000240BE0E7
:1022B000002011490862FFF785FF0F48006BC0B28C
:1022C0000DF80400601CC4B2042CF1DB9DF8000082
:1022D00000069DF8011000EB01409DF8021000EB94
:1022E00001209DF80310461801200249086030467D
:1022F000FEBD0000B048004000100640B4000020C1
:102300001CB502460C4600200E4908608DF80000FE
:102310004FEA12208DF80100D0B28DF802008DF83E
:1023200003404FF0000307E01DF803000649086270
:10233000FFF748FF581CC3B2042BF5DB012001490D
:1023400008601CBDB0480040001006401CB50246A5
:102350000B460020114908608DF800004FEA12205A
:102360008DF80100D0B28DF802004FEA13208DF8ED
:102370000300D8B28DF804004FF0000407E01DF808
:10238000040007490862FFF71DFF601CC4B2052C5A
:10239000F5DB0120014908601CBD0000B048004089
:1023A000001006401CB503460A4600201549086087
:1023B0008DF800004FEA13208DF80100D8B28DF897
:1023C00002004FEA12608DF803004FEA12408DF8C8
:1023D00004004FEA12208DF80500D0B28DF80600F7
:1023E0004FF0000407E01DF8040007490862FFF7FA
:1023F000E9FE601CC4B2072CF5DB0120014908602E
:102400001CBD0000B048004000100640016941F0CA
:10241000010101617047816821F008018160704706
:102420002DE9F0470446884692461F46DDF8209085
:10243000202F00D1002748EA072040EA0A00206048
:10244000FEF704FD05464FF6FF76B9F1000F0CD0FC
:10245000B5FBF9F6B6F5803F01D34FF6FF7660681D
:102460006FF30F003043606001E000206060701C7B
:10247000B5FBF0F0BDE8F08710B5FFF73BFDFEF7C8
:10248000BBFDFEF783FDFEF7C5FD10BD10B500F0E6
:1024900027F80120FEF7CEFC0120FEF763FD0021A6
:1024A0000846FEF711FD0D48006840F480304FF0FB
:1024B0008041C1F8400244F21A00084908604FF018
:1024C0000400FEF74FFD00210220FEF7FDFC00F0A6
:1024D000EFF842F2107000F035F810BD40020040F5
:1024E0000CE05920084908604FF016004FF0804179
:1024F000C1F800014FF088000349086002480068F5
:102500000128EED1704700000001004000B50346ED
:10251000184600F001F800BD00BF0949896911F4AF
:10252000000FFAD1064908600A2808D100BF044903
:10253000896911F4000FFAD10D21014A1160704729
:10254000000007400D49096841434FF0E022516106
:10255000002191610721116100BF5117002905DA9F
:1025600001210901064A0B23D15404E0012109018C
:10257000044A5317D15400BF704700008C0000205C
:1025800018ED00E000E400E010B5044622460AA180
:102590000A4800F0EDFA0A4908700846007809492F
:1025A0000978884206D0064800780649087001205C
:1025B000FFF7D8FC10BD00002564000034000020A7
:1025C000720000207300002010B5044622460AA1C4
:1025D0000A4800F0CDFA0A4908700846007809490F
:1025E0000978884206D0064800780649087001201C
:1025F000FFF7B8FC10BD0000256400001E0000209D
:10260000700000207100002010B5044622460AA187
:102610000A4800F0ADFA0A490870084600780949EE
:102620000978884206D006480078064908700120DB
:10263000FFF798FC10BD0000256400004A00002050
:10264000740000207500002010B5044622460AA13F
:102650000A4800F08DFA0A490870084600780949CE
:102660000978884206D0064800780649087001209B
:10267000FFF778FC10BD000025640000600000201A
:102680007600002077000020024800680A300149E7
:10269000086070470400002000BF06E042F210719D
:1026A00000E0491E0029FCD1401E0028F6D17047E9
:1026B00070B51049096801F00704022C03D00E49D7
:1026C00051F8240001E0FEF7C9FB0C49096801F04C
:1026D0000F0101F10105B0FBF5F1094A1160114646
:1026E0000968084A11444FEA4202B1FBF2F1064A76
:1026F000116070BD100200409000002020020040D8
:102700008800002020A107008C0000200020044940
:10271000096841F470014FF0E022C2F8881D70474B
:1027200088ED00E030B589B005462022194901A89E
:10273000FDF723FE1848854204D118480068C0F30D
:10274000022414E014482030854204D11348006864
:10275000C0F302340BE01248854204D10F480068F0
:10276000C0F3024403E00D480068C0F30254022C99
:102770000CD10C48006810F0400F04D00A480068E3
:10278000400809B030BD08480068FAE701A850F8D1
:102790002400F6E7C846000000000540140200408F
:1027A0000010054010020040880000202DE9F0478D
:1027B0000546894616462846FFF7B4FF044600271B
:1027C000B846B6EB540F01D9022715E0B4F1806F7B
:1027D00003D34FF00708E4080CE0B4F1007F03D303
:1027E0004FF00308A40805E0B4F1807F02D34FF056
:1027F00001086408B4FBF6F749EA080028606F6036
:1028000008F101007843B4FBF0F0BDE8F0870168FF
:1028100021F080410160704710B500BF01200349DD
:10282000886000BF01F0BEFC10BD00000000054044
:10283000F0B5ADF51F7D6E46002000903848019040
:10284000012002904FF4067003904FF4F47004904E
:102850004FF406752A4631463248FDF78EFD0020BA
:102860003149C1F80401402230A12F48FDF7B8FDDD
:102870002D48D0F8041131A0FEF71AFD05464DB9D8
:1028800030492EA0FFF7CEF9054635B12EA000F055
:102890005FF902E037A000F05BF92A493F48FDF7F5
:1028A000B3FD3FA13D48FDF78DFD1F493B48FDF7B6
:1028B00089FD00213948FEF733FC0446002C03DA79
:1028C0001AA138A000F044F91F2241A12046FFF7C9
:1028D0006CFA07462046FEF717FC1A492F48FDF709
:1028E00093FD2FA12D48FDF76DFD0F492B48FDF7F6
:1028F00069FD00212948FFF7D6F90446002C03DAC8
:1029000009493BA000F024F93A4686A92046FFF782
:10291000F8F907462046FEF7F7FB0DF51F7DF0BDE1
:102920003412F5EEAC270020142600206D79656581
:1029300070726F6D2E747874000000002F4545444E
:1029400045563100D80100204572726F723A204618
:1029500061696C656420746F206D6F756E742045BD
:102960004550524F4D2046696C652053797374650C
:102970006D0A00004572726F723A204661696C659B
:102980006420746F20696E697469616C697A65206E
:10299000454550524F4D2046530A00002C27002039
:1029A0002F0000004572726F722063616C6C696E5B
:1029B0006720454546535F4372656174206F6E2002
:1029C000454546532066696C653A2025730A000028
:1029D0007465737477697465722D66696C652177A7
:1029E0007269746520746F20454550524F4D000048
:1029F0004572726F72206F70656E696E6720454513
:102A000046532066696C653A2025730A0000000071
:102A100010B50E48C46914F4807F06D001F0CAFBDB
:102A200001210A4800F014F80FE014F4007F07D0E9
:102A300001F0C8FB4FF40071044800F009F804E00D
:102A40004FF46051014800F003F810BD003007401A
:102A500011F4806F07D0826942F07002826182694E
:102A600042F00802826111F4006F03D0426942F023
:102A70000102426111F4005F03D08269054B1A43E1
:102A8000826111F4805F03D0C26942F01002C2611A
:102A90007047000001000001416821F4405141608D
:102AA000704742688A434260704742680A43426006
:102AB000704700002DE9FF5F05460C461646984614
:102AC000DDF838A0194B0FCB8DE80F000027FEF77B
:102AD000C5F9019016480068C0F3016B5DF82B1032
:102AE0004FF08040D0F82002C0F3032000F1010035
:102AF000B1FBF0F99CB109EB5400B0FBF4F0871E78
:102B0000B7F5803F08D309EBC400B0FBF4F0022115
:102B1000C1EB1010686202E047F04050686246EA7C
:102B2000080040EA0A00E860BDE8FF9FF8460000A0
:102B30001402004070B504460D46164603490819B4
:102B400032462946FDF719FC70BD0000AC27002075
:102B50000FB4054B10B503A9044A029800F0D6F84B
:102B600010BC5DF814FB0000014100007C00002057
:102B70000FB4084B10B504A902AA039800F0C6F8D8
:102B8000044602A9002000F055FC204610BC5DF868
:102B900014FB00003534000002E008C8121F08C111
:102BA000002AFAD170477047002001E001C1121FCE
:102BB000002AFBD1704700002DE9FF5FDDE902101C
:102BC000020DDDF838B001430FD10F9801244AA35C
:102BD000012807D000980F9AC0E90031C0E90242ED
:102BE000BDE8FF9F6FEA0B01F4E7A2F2FF3244F663
:102BF0001050424315140F9801280FD0A5EB0B007D
:102C0000401C4FF000043D4EDFF8F490B0F1000A94
:102C1000A046C0F1000717DB074615E0CBF1000026
:102C2000EFE7F80707D02246334640464946FDF70E
:102C3000A8FC804689462246334620463146FDF7A9
:102C4000A0FC04460E467F10002FEAD1DDE9020108
:102C5000BAF1000F42464B4602DAFDF792FC01E062
:102C6000FDF700FD04460E460022264BFDF730FE20
:102C700003D84FF0FF30014607E00022224B2046E8
:102C80003146FDF7D9FBFDF70AFE102409E0002CC0
:102C90000ADB0A220023FDF72DFB019B30321A5577
:102CA000641E50EA0102F2D1641C019AC4F11103BE
:102CB00014440F9A012A07D00122084301D15B4531
:102CC0000DDD00226D1C0DE0084303D1A3EB0B05C5
:102CD0006D1E09E000204FF0110B0F908BE701DA19
:102CE00000226D1E002A86D000980F99C0E902319B
:102CF000C0E9004574E700003000000000002440F7
:102D00000000F03F0000F0430000E03F2DE9FF4FDE
:102D100095B006469A460F460025F2E1252878D15F
:102D20000024761CFB4AA046012106943378203B00
:102D300001FA03F0104202D00443761CF6E7307823
:102D40002A2811D06FF02F023078A0F13001092924
:102D500015D8069944F0020401EB810102EB410110
:102D60000844761C0690EFE701CF0690002803DAAE
:102D7000404244F40054069044F00204761C30783B
:102D80002E2817D116F8010F44F004042A280ED07B
:102D90006FF02F023078A0F1300109290AD808EB32
:102DA000880102EB410100EB0108761CF2E757F8BD
:102DB000048B761C30786C280FD006DC4C2817D09A
:102DC00068280DD06A2814D104E0742810D07A281D
:102DD0000FD10DE044F400140AE044F4801401E043
:102DE00044F440147178814202D1761C04F58014B9
:102DF000761C3078864666280AD012DC582872D0B5
:102E000008DC80B3452803D0462801D047281AD1D2
:102E100096E118E0632832D0642875D0652812D175
:102E20008EE170286ED008DC67286CD069286BD0E2
:102E30006E280DD06F2806D1A9E0732828D07528F8
:102E40006FD078286ED05246179990476D1C56E186
:102E5000C4F30250022807D003280BD0042801CF66
:102E60000BD005604BE150E101CF4FEAE571C0E9BD
:102E7000005144E101CF058041E105703FE101CF00
:102E80008DF8000000208DF80100EB46012003E0E2
:102E900057F804BB4FF0FF3061074FF0000102D438
:102EA0000DE009F10101894641450FDA8145F8DB62
:102EB0001BF809100029F4D108E009F10101894645
:102EC0008142FADB1BF809100029F6D10698534617
:102ED000A0EB090080462146179A00F094FA284496
:102EE00000EB090505E047E01BF8010B5246179976
:102EF0009047B9F10109F7D2534621464046179A47
:102F0000FAE001E03AE01BE10A21C4F302524FF07B
:102F1000000B0091022A06D001CFC117032A08D066
:102F200009E022E023E0FF1D27F00707F7E8020190
:102F300005E000B2C117042A01D140B2C11700292F
:102F400006DA0A460021404261EB02012D2202E02E
:102F5000220504D52B228DF80420012203E0E2078C
:102F600001D02022F7E7914653E00A2110E010201B
:102F70004FF0000B00900EE0102109E010204FF000
:102F8000000B44F004044FF00808009003E008210F
:102F90004FF0000B0091C4F30252022A04D001CF7B
:102FA0000021032A06D007E0FF1D27F00707F7E8F6
:102FB000020105E080B20021042A01D1C0B2002143
:102FC0004FF00009220724D5BEF1700F2AD0009BD4
:102FD00083F0100353EA0B0309D150EA010206D033
:102FE00030228DF804208DF805E002229146009BE6
:102FF00083F0080353EA0B030BD150EA010201D11D
:10300000620706D530228DF804204FF00109A8F19F
:10301000010841A2BEF1580F00D044A203920FAAAA
:1030200002920FE040228DF804200122DEE75B4689
:10303000009AFDF75FF9039B9B5C029AA2F10102E3
:103040000292137050EA0102F1D1029807A9A1EB94
:10305000000000F1200B600702D524F4803401E069
:103060004FF00108002041465A46D84501DDA1EB4A
:10307000020000EB0B01009006984944A0EB010010
:103080000690E00306D453462146179A069800F0AE
:10309000BAF90544002008E001A8524610F80800DB
:1030A000179990476D1C08F1010080464845F3DBF5
:1030B000E0030CD553462146179A069800F0A3F971
:1030C000054404E030205246179990476D1C009942
:1030D000481E00900029F5DC08E00298029952464B
:1030E0000078491C0291179990476D1CBBF10001B3
:1030F000ABF1010BF1DC67E100F072F9054406F178
:103100000106307800287FF409AE19B02846BDE8E2
:10311000F08F000009280100303132333435363762
:1031200038394142434445460000000030313233D3
:1031300034353637383961626364656600000000F3
:10314000600701D44FF0060807F1070727F00707CB
:10315000A0A1F7E8020C0CF000431A0007D19EA1D1
:10316000220504D49DA1E20701D1AFF244011291DE
:103170002CF0004C7146BEF1650F0ED007DC4529DE
:103180000BD0462920D0BEF1470F3DD13DE0662946
:103190001AD0BEF1670F37D137E000231122414624
:1031A000B8F1110F00DA4A1CCDE90023024663464C
:1031B00007A902A8FFF700FD012000904FF0000BC7
:1031C00008F10109039868E04FF000410F910123D5
:1031D000CDE900830246634607A902A8FFF7ECFC8D
:1031E000DDE904904FF0000B20B9039908F10100CC
:1031F00001EB0009B8EB090003D4C0F1FF3B08F173
:103200000109A9EB0800009048E04146B8F1010F20
:1032100001DA0121884600231122B8F1110F00DCE8
:103220000A46CDE900230246634607A902A8FFF734
:10323000C3FC4FF0000BC14620070FD40499414551
:1032400003DA894601E0A9F10109B9F1010F05DDB1
:103250000299A9F10100085C3028F4D00399414596
:1032600002DA11F1040F03DA01200F91009015E04A
:10327000002903DC8B44A9EB010005E0481C48450C
:1032800003DD039800F1010081460399A1EB0B00D7
:1032900000F1010000904FF000400F90200705D48E
:1032A0000098484502DB4FF0FF30009000210F9856
:1032B0000DF147088DF84710B0F1004F26D00220DD
:1032C00001902B2013900F9800280CDA40420F90A9
:1032D0002D20139007E00A210F98FDF748FA3031AE
:1032E0000F9008F8011D0199481E01900029F2DC99
:1032F0000F980028EFD1A8F10102139911703178CD
:1033000001F0200141F0450108F8021D10A9A1EBD0
:10331000080000F1070001901298007800B1012028
:1033200000EB0901009801EBE07101980144069857
:10333000A0EB0100A0F101000690E00306D4534683
:103340002146179A069800F05EF805441298007816
:1033500020B152461799904705F10105E00322D5A7
:1033600053462146179A069800F04DF805441AE096
:10337000BBF1000F07DB0499594504DD029911F8F0
:103380000B00179901E0179930205246904700989A
:103390006D1C401E0BF1010B009004D12E205246F3
:1033A000179990476D1CB9F10001A9F10109DFDC03
:1033B00005E018F8010B5246179990476D1C0199CA
:1033C000481E01900029F4DC53462146179A0698BE
:1033D00092E600002D0000002B00000020000000FD
:1033E0002DE9F0410446002517461E46880405D401
:1033F00006E039462020B04705F10105641EF8D5E6
:103400002846BDE8F0812DE9F0410446002530272B
:1034100090461E46C80300D42027880405D506E040
:1034200041463846B04705F10105641EF8D52846E7
:10343000BDE8F0810A68531C0B60107070470000F3
:1034400010B5002406480078012806D10548006818
:10345000804700200249087000E00624204610BD85
:1034600018010020AC0100202DE9F05F06460D4652
:103470004FF0000B2888052848D170784FEA0029C2
:10348000B07840EA090909F101001FFA80F9F078E3
:10349000040230790443012C35DBB4F5FA6F32DADB
:1034A000374600202880012007F8010B2888401C9F
:1034B000288014F0070F08D02046E11704EB517163
:1034C000C910491C01F0FF0805E02046E11704EB94
:1034D0005171C1F3C70807F8018B2888401C288068
:1034E000002322464946384600F00CFC8246BAF1D9
:1034F000000F04D0504600F044FE834608E02888C0
:103500004044288004E04FF0030B01E04FF0030B30
:103510005846BDE8F09F2DE9F05F06460D464FF096
:10352000000B2888052847D170784FEA0029B07829
:1035300040EA090909F101001FFA80F9F078040254
:1035400030790443012C34DBB4F5FA6F31DA3746B5
:1035500000202880022007F8010B2888401C2880C2
:1035600014F0070F08D02046E11704EB5171C91081
:10357000491C01F0FF0805E02046E11704EB5171FA
:10358000C1F3C70807F8018B2888401C2880224611
:103590004946384600F05AFC8246BAF1000F04D082
:1035A000504600F0EEFD834608E02888404428801D
:1035B00004E04FF0030B01E04FF0030B5846BDE869
:1035C000F09F2DE9F04705460C464FF0000A208891
:1035D000052837D168784FEA0028A87840EA08081B
:1035E00008F101001FFA80F8E87806022E79012E12
:1035F00025DB7D2E23DC2F4600202080032007F8CA
:10360000010B2088401C20807006000E07F8010B7B
:103610002088401C2080002332464146384600F076
:10362000AFFC8146B9F1000F04D0484600F0A9FD77
:10363000824609E0208800EB4600208004E04FF03D
:10364000030A01E04FF0030A5046BDE8F0872DE978
:10365000F04705460C464FF0000A2088052837D170
:1036600068784FEA0028A87840EA080808F10100C5
:103670001FFA80F8E878060228790643012E24DB39
:103680007D2E22DA2F4600202080042007F8010B2F
:103690002088401C20807006000E07F8010B20884F
:1036A000401C208032464146384600F0CFFC81461F
:1036B000B9F1000F04D0484600F063FD824609E0EE
:1036C000208800EB4600208004E04FF0030A01E070
:1036D0004FF0030A5046BDE8F0872DE9FC5F044631
:1036E0000D460020009028880A285DDB60784FEAAC
:1036F000002AA07840EA0A0A0AF101001FFA80FABB
:10370000E07806022079064360794FEA002BA07921
:1037100040EA0B0B0BF101001FFA80FBE079070276
:10372000207A0743607A0190012E3BDB7D2E39DC45
:10373000012F37DB792F35DC79000198814231D1B7
:1037400001233A46594604F10A0000F019FC81466B
:10375000B9F1000F1ED1A04600202880172008F8DC
:10376000010B2888401C28807006000E08F8010B09
:103770002888401C2880002332465146404600F0ED
:10378000FFFB8146B9F1000F04D12888022101FB1B
:1037900006002880B9F1000F06D0484600F0F1FC81
:1037A000009001E0032000900098BDE8FC9F00001D
:1037B00070B504460D46064802880649601CFCF7B1
:1037C000DCFD03480088401C2880002070BD0000FC
:1037D00014010020481E00202DE9F84304460F463E
:1037E0004FF000083888052829D160780502A078B4
:1037F0000543681C85B22079F0B9E078FF2801D034
:10380000E078C8B900208DF80100E078FF2803D1E6
:1038100001208DF8000002E000208DF80000012357
:103820001A462946684600F06DFA06464EB1304603
:1038300000F0A7FC804604E04FF0030801E04FF0E1
:1038400003084046BDE8F8832DE9F04104460F46E1
:103850004FF000083888052812D160780502A0785A
:103860000543681C85B201231A462946E01C00F076
:1038700087FB064636B1304600F083FC804601E007
:103880004FF003084046BDE8F0812DE9F05F0546A2
:103890000E464FF0000B3088052839DD68780702A6
:1038A000A8780743781C87B2E87804022879044393
:1038B00095F805A014F0070F08D02046E11704EB97
:1038C0005171C910491C01F0FF0805E02046E117BD
:1038D00004EB5171C1F3C708012C16DBB4F5F66F88
:1038E00013DCD04511D1012322463946A81D00F032
:1038F00009FA8146B9F1000F04D0484600F041FCB6
:10390000834607E00520308004E04FF0030B01E020
:103910004FF0030B5846BDE8F09F2DE9F0470446F1
:103920000E464FF0000A3088062828DB6078070230
:10393000A0780743781C87B2E07805022079054318
:1039400094F80590012D17DB782D15DC6806000E24
:10395000484511D101232A463946A01D00F010FB2D
:103960008046B8F1000F04D0404600F00AFC8246C1
:1039700007E00520308004E04FF0030A01E04FF03B
:10398000030A5046BDE8F0872DE9F04705460C468E
:1039900016461F46DDF820904FF000081CB1012CA0
:1039A00001DBF72C02DD4FF0020835E01C48047003
:1039B00005BB1C481C4908601C481D4908601D487F
:1039C0001D4908601D481E49086000201D49086007
:1039D0001D481E4908601E481E4908601E481F49B0
:1039E00008604B463A4631460D48007800F0D0F862
:1039F000804602E04FF0020800BF00BFB8F1000FA0
:103A00000AD100F0AFFC10B94FF0030804E01448ED
:103A100005700120134908704046BDE8F08700009A
:103A2000A5010020C93C0000AC010020ED3C0000D5
:103A3000B0010020393C0000A8010020E93B000053
:103A4000B4010020B801002005450000BC010020A1
:103A5000CD450000C00100208D450000C4010020BC
:103A6000A60100201801002038B500253E48007846
:103A700008B1062038BD684600F062FC012870D10C
:103A80009DF8000030B1012805D0022818D0032885
:103A900066D164E064E0354A35493648364B1B68E8
:103AA000984705465DB9334800783449097888421B
:103AB00002D03048007810B9022000F05BFC4FE0E3
:103AC0002B48006800782E49087001202D490870A5
:103AD000002417E02C4810F8340000B914E02A48FC
:103AE00010F834002649097888420AD1264800EBAC
:103AF000C4001E4942681E4800689047214908706A
:103B000002E0641C102CE5DB00BF1A48007828B3E3
:103B10001C480078C0B1002014490880184800787B
:103B200040F080000A880988491C104B1980104910
:103B30000968885413480178184602880088401C98
:103B400018800B48006881540848028808480168BA
:103B50000A4800780D4B1B689847054600E000BFF7
:103B600000BF002086E7000018010020A20100200D
:103B70009C010020A0010020B4010020A50100202C
:103B8000A1010020A40100201C010020A8010020A8
:103B90002DE9F04781460E4614461F464FF00008B7
:103BA000FEF716F93B4608222146304600F0F6FBA8
:103BB000012802D04FF003080FE0B4F5964F01D969
:103BC000232503E060000749B1FBF0F5A8B200F03F
:103BD00049FC012801D04FF00308FEF7FAF84046EF
:103BE000BDE8F087A07F17002DE9F04104460D469F
:103BF00016460027FEF7ECF80D480088042810DB75
:103C00000B4801880B4800F03BFB50B9094800788D
:103C1000207007480088C01E30800648401C28607D
:103C200000E00527FEF7D5F83846BDE8F081000032
:103C30000E010020481D00202DE9F04105460E46EA
:103C400017464FF00008FEF7C3F81A48007801281D
:103C500029D1701E184908600120184908801648AB
:103C600000680570084600883844088008460188C6
:103C70001148006800F004FB0446104A1088421CFA
:103C80000E4B1A800E4A145421121A461088421CF8
:103C90001A800B4A115401200A49087001210020A2
:103CA00000F00AFB01E04FF00508FEF792F84046ED
:103CB000BDE8F08105010020080100200C01002072
:103CC000481D00200401002010B5FEF781F80020F7
:103CD000054908700021012000F0EEFA00F01EFBFB
:103CE000FEF777F810BD00000501002010B5FEF7C3
:103CF0006FF80021084600F0DFFA00F007FBFEF73E
:103D000068F810BD2DE9FF4F83B005460E461446F6
:103D1000002002902046E11704EB5171C91001F117
:103D2000010A00F00BFB78B100F0A8FA434901EB5F
:103D3000C0074FF0010B4020019041480088C0B2FD
:103D400000900120069008E03E4F4FF0010B40200C
:103D500001903D480088C0B200905E4568DB301994
:103D600001995944884263DC0099701AC11700EB2D
:103D700051714FEAE1080099701AC11700EB5171B7
:103D8000C910A0EBC109069810B101284FD124E059
:103D90000CE0414608F10108C81908221FFA89F110
:103DA00000F04AFC05F8010BAAF1010ABAF1000F74
:103DB000EFDC6D1E2046E11704EB5171C910A4EB36
:103DC000C1018CB22878C4F1080188402870287895
:103DD000C4F108010841287029E00EE015F8013B04
:103DE000404608F1010800EB070C08221FFA89F190
:103DF000604600F039FCAAF1010ABAF1010FEDDCCE
:103E00002046E11704EB5171C910A4EBC1018CB23B
:103E100064B115F8013B404608F1010800EB070CBE
:103E2000E2B21FFA89F1604600F01EFC00BF01E01B
:103E300001200290029807B0BDE8F08FC80300206F
:103E4000F0000020F8000020E80000202DE9FE4FDF
:103E500005460E461446002002902046E11704EB6A
:103E60005171C91001F1010A00F068FA68B100F05F
:103E700005FA3F4901EB40074FF0010B102001907C
:103E80003C480088C0B2009008E03B4F4FF0010B67
:103E90001020019039480088C0B200905E4561DB77
:103EA00031190198584481425CDC0099701AC1179D
:103EB00000EB51714FEAE1080099701AC11700EB4D
:103EC0005171C910A0EBC10900F038FA28B30CE019
:103ED00015F8013B414608F10108C81908221FFAEC
:103EE00089F100F0C1FBAAF1010ABAF1010FEFDC80
:103EF0002046E11704EB5171C910A4EBC1018CB24B
:103F00007CB315F8013B414608F10108C819E2B23B
:103F10001FFA89F100F0A8FB26E00CE0414608F109
:103F20000108C81908221FFA89F100F085FB05F87D
:103F3000010BAAF1010ABAF1000FEFDC6D1E204659
:103F4000E11704EB5171C910A4EBC1018CB22878C0
:103F5000C4F10801884028702878C4F1080108419C
:103F6000287001E0012002900298BDE8FE8F000059
:103F7000A8030020EE000020F6000020E60000204C
:103F80002DE9F04704460E4615461F464FF0000A3D
:103F900000F0D4F990B100F071F900EBC00C0CEB1B
:103FA0000010DFF898C00CEBC00201234FF064084A
:103FB0002348008800F0FF09012707E0214A012378
:103FC0004FF064082048008800F0FF099E4230DB73
:103FD000701903EB080C60452BDCA6EB090117B147
:103FE000012F25D10FE00BE032F81100001204F888
:103FF000010B32F8110004F8010B491C681E85B250
:10400000002DF1DC14E010E014F801CB4FEA0C2095
:1040100022F8110014F8010B32F811C040EA0C002C
:1040200022F81100491C681E85B2002DECDC00BF8F
:1040300001E04FF0010A5046BDE8F087C8100020AB
:10404000F4000020E0020020EC0000202DE9F04305
:1040500003460C4615464FF0000900F06FF980B199
:1040600000F00CF900EBC00C0CEB0010DFF880C086
:104070000CEBC002012664271E48008800F0FF08F0
:1040800006E01D4A012664271C48008800F0FF084E
:10409000B44228DB601906EB070C604523DCA4EB77
:1040A00008011DE000F04AF970B113F801CB4FEAA6
:1040B0000C2022F8110013F8010B32F811C040EA6D
:1040C0000C0022F8110008E032F81100001203F889
:1040D000010B32F8110003F8010B491C681E85B270
:1040E000002DDFDC01E04FF001094846BDE8F08318
:1040F00048040020F200002018020020EA000020FE
:1041000030B504460D462046FEF700FA204630BD85
:104110001CB513A000680190FEF78AFBFEF7B6F904
:10412000FEF7AAF9FCF746FE002300934FF4E133B3
:10413000002208211046FFF727FCFFF781F900BF96
:104140000848006808490968401AC82803D3054888
:10415000006805490860FFF787FCFDF727FFEFE7D8
:10416000AABBCC00040000200800002010B50446C3
:1041700003E02078FDF708FF641C20780028F8D1C0
:1041800010BD014621B1012904D0072906D103E061
:10419000002005E0022003E0062001E0042000BF2B
:1041A00000BF704710B502480068804710BD00008E
:1041B000C401002010B502480068804710BD00000F
:1041C000BC01002010B502480068804710BD000007
:1041D000C001002010B5044610A02168FEF7B8FC0D
:1041E00011A06168FEF7B4FC12A0A168FEF7B0FC54
:1041F00013A0E168FEF7ACFC14A02169FEF7A8FC4F
:1042000015A06169FEF7A4FC16A0A169FEF7A0FC49
:1042100017A0E169FEF79CFC10BD00007230202061
:104220003D20307825780A00723120203D203078FA
:1042300025780A00723220203D20307825780A0047
:10424000723320203D20307825780A0072313220E8
:104250003D20307825780A006C7220203D2030788F
:1042600025780A00706320203D20307825780A00E8
:10427000707372203D20307825780A000020704746
:1042800030B502460B46FF24A44609E012F8010BA4
:1042900080EA0C010648405C80EA040C0548445C56
:1042A0001800A3F10105ABB2F0D14CEA042030BDF7
:1042B000084700000848000070B504460D4654B198
:1042C00001201049086001460F48FEF7EEFB32203E
:1042D000FEF7E2F90AE000200A4908604FF0010108
:1042E0000948FEF7DEFB3220FEF7D6F925B10221A0
:1042F0000548FEF7DAFB03E002210348FEF7D1FB95
:1043000070BD0000704800400030074010B5024802
:10431000FEF77DFA10BD0000000005400648006869
:1043200020F0FF000449086000BF0846006840F024
:104330008040086000BF70470000054000207047C3
:1043400001460020054A127832B1054A12780A70F7
:104350000022024B1A70012070470000E500002087
:10436000E40000200020024908700120704700008E
:10437000E500002001460120024A10700248017049
:1043800001207047E5000020E400002001460248BB
:10439000006808700120704700300740F8B50546F6
:1043A0000C4616461F462648FCF730FD00224FF00B
:1043B00040712348FCF7A4FD4FF08040806C40F42E
:1043C00008104FF080418864012205211D48FDF747
:1043D00034FD002204211B48FDF72FFD1A48FEF78B
:1043E0005BFB00230322214617480093FEF762FB84
:1043F000FDF7EEFC01211448FEF757FB00BF6B20D0
:10440000002805DA0020000110490722885404E042
:10441000002000010E496B22885400BF00BF0B2111
:10442000012088406B2149094FF0E02202EB810115
:10443000C1F8000100BFFDF7CCFC0120F8BD000071
:10444000133D8057C04000400030074018ED00E0A9
:1044500000E400E0014602480160012070470000CE
:104460000030074010B52DED028B0446002008EE09
:10447000100A2048FCF7CAFC00224FF400711D48C6
:10448000FCF73EFD22464FF000611B48FEF78EF917
:1044900000BF1948006840F000501749086000BF8D
:1044A00000BF2020002805DA0A2000011349CA169F
:1044B000885404E00A20000111492022885400BFDA
:1044C00000BF002101208840202149094FF0E0224F
:1044D00002EB8101C1F8000100BF0748006820F02D
:1044E000FF00054908600846FEF791F90120BDEC80
:1044F000028B10BD0200805E0000054018ED00E058
:1045000000E400E038B500246846FFF73FFF1C4890
:10451000007830B101280AD0022819D003282BD105
:1045200002E0FFF7FBFE27E0FFF7F8FE24E00020A3
:10453000144908809DF800200888411C114B1980FF
:1045400011490A5402200E490870FFF7E7FE13E0F4
:104550000C480088FF2809DC9DF8002009490888DC
:10456000411C084B198008490A5402E00320044901
:104570000870FFF7D3FE00BF00BF204638BD000023
:10458000050100200E010020481D002010B5002468
:104590000D48007820B1022807D003280BD109E08C
:1045A0000020FFF7E7FE044606E00120FFF7E2FEE9
:1045B000044601E000E000BF00BFFFF7A7FE0120B6
:1045C00001490870204610BD0501002010B50024E7
:1045D0001648007810B1012824D104E00021012000
:1045E000FFF76AFE1EE01248008878B11149096899
:1045F0000878FFF72FFF0F480068401C0D4908603E
:104600000B480088401E0A4908800AE00320FFF793
:10461000B1FE044600210120FFF74EFE00200349B1
:10462000087000BF00BF204610BD0000040100203C
:104630000C0100200801002070B503460C46154609
:10464000E208A4EBC2001FFA80FC0120A840401E33
:1046500086B2995C501C185C41EA002141FA0CF0CA
:1046600081B23140C8B270BD2DE9F0430446154611
:104670001F46C808A1EBC0081FFA88FC07FA0CF80F
:104680001FFA88F74FF0010808FA05F8A8F10108A9
:104690001FFA88F6A1EBC00806FA08F81FFA88F698
:1046A000225C00F1010814F8088042EA082222EA9C
:1046B000060848EA070222544FEA222800F10109BD
:1046C00004F80980BDE8F083001BB70000800000FB
:1046D00000000000000000000000000010270000A3
:1046E0000000000000805101001BB7000000000026
:1046F0000080510100805101001BB7000000000044
:10470000008051010080510100C1814001C0804101
:1047100001C0804100C1814001C0804100C1814091
:1047200000C1814001C0804101C0804100C1814081
:1047300000C1814001C0804100C1814001C0804171
:1047400001C0804100C1814001C0804100C1814061
:1047500000C1814001C0804100C1814001C0804151
:1047600001C0804100C1814000C1814001C0804141
:1047700001C0804100C1814001C0804100C1814031
:1047800000C1814001C0804101C0804100C1814021
:1047900000C1814001C0804100C1814001C0804111
:1047A00001C0804100C1814000C1814001C0804101
:1047B00001C0804100C1814001C0804100C18140F1
:1047C00000C1814001C0804100C1814001C08041E1
:1047D00001C0804100C1814001C0804100C18140D1
:1047E00000C1814001C0804101C0804100C18140C1
:1047F00000C1814001C0804100C1814001C08041B1
:1048000001C0804100C1814000C0C101C30302C298
:10481000C60607C705C5C404CC0C0DCD0FCFCE0E00
:104820000ACACB0BC90908C8D81819D91BDBDA1A70
:104830001EDEDF1FDD1D1CDC14D4D515D71716D6E0
:10484000D21213D311D1D010F03031F133F3F23250
:1048500036F6F737F53534F43CFCFD3DFF3F3EFEC0
:10486000FA3A3BFB39F9F83828E8E929EB2B2AEA30
:10487000EE2E2FEF2DEDEC2CE42425E527E7E626A0
:1048800022E2E323E12120E0A06061A163A3A26210
:1048900066A6A767A56564A46CACAD6DAF6F6EAE80
:1048A000AA6A6BAB69A9A86878B8B979BB7B7ABAF0
:1048B000BE7E7FBF7DBDBC7CB47475B577B7B67660
:1048C00072B2B373B17170B05090915193535292D0
:1048D00096565797559594549C5C5D9D5F9F9E5E40
:1048E0005A9A9B5B99595898884849894B8B8A4AB0
:1048F0004E8E8F4F8D4D4C8C448485458747468620
:10490000824243834181804028490000000000200A
:10491000180200001C090000BC4900001802002019
:1049200098310000A82B00000110100851433132CB
:10493000383634A00DB5E7D1B9203A3030302E30BA
:1049400030A00DB5E7C1F7203A3131312E3131A811
:104950000DB9A6C2CA203A3232322E32322C0B1096
:10496000C4DC16011945805101161B1BB70C610BE5
:10497000101027240136DA010201223202321123FB
:10498000B1373204234F3632031BC3359829A7228F
:1049900039320623493832171ADB20295823693463
:1049A00032051AD938320F1A8B20294C1A173801C0
:0C49B0006C0009382F656562616E6B3188
:04000005000002797C
:00000001FF
